:020000040800F2
:10000000D0120020450100084108000849070008F7
:100010003D080008250200088713000800000000C2
:100020000000000000000000000000004D0A000871
:100030009905000800000000D5080008610B0008C1
:100040005F0100085F0100085F0100085F01000810
:100050005F0100085F0100085F0100085F01000800
:100060005F0100085F0100085F0100085F010008F0
:100070005F0100085F0100085F0100082902000815
:100080005F0100085F0100085F0100085F010008D0
:100090005F0100085F0100085F0100085F010008C0
:1000A0005F010008C50B00085F0100085F01000840
:1000B0005D0C00085F0100085F0100085F01000897
:1000C0005F0100085F0100085F0100085F01000890
:1000D0005F010008851000085F0100085F0100084B
:1000E0005F0100085F0100085F0100085F01000870
:1000F0005F0100085F0100085F0100085F01000860
:100100005F0100085F010008C10C00085F010008E2
:100110005F0100085F010008DD0C00085F010008B6
:100120005F0100085F0100085F0100085F0100082F
:10013000DFF80CD000F018F80048004789140008D8
:10014000D01200200648804706480047FEE7FEE739
:10015000FEE7FEE7FEE7FEE7FEE7FEE7FEE7FEE777
:10016000650B000831010008064C074D06E0E06809
:1001700040F0010394E8070098471034AC42F6D3EE
:10018000FFF7DAFFF01500081016000870B58D189B
:1001900010F8014B14F0030201D110F8012B2311C8
:1001A00006D110F8013B03E010F8016B01F8016B78
:1001B000521EF9D1ABB110F8012B04F00C048A1ACD
:1001C0000C2C03D0A2EB84129B1C08E010F8014B0E
:1001D000A2EB0422F8E712F8014B01F8014B5B1E79
:1001E000F9D5A942D4D3002070BD000010B500F0AD
:1001F00028FB01F0F3F84FF4E13001F049F900F089
:10020000CBFA032000F0A2FA00F0F6F802A001F009
:10021000BDF800F0BBFA10BD737973206F6B0D0A47
:100220000000000000BFFEE710B500244FF40030CE
:1002300000F0A4F801286BD136480078412850D14D
:100240003448C07D45284CD13348008840F40040F4
:10025000314908800846008840F48060088000F03A
:100260008FFA2C484078422806D12B48008840F469
:1002700080402949088023E026484078432806D159
:100280002548008840F400502349088018E02148A0
:100290004078442806D12048008840F480501E4908
:1002A00008800DE01B484078452806D11A48008890
:1002B00040F400601849088002E0002016490880D8
:1002C00000240BE01349A01C085C1449085512488F
:1002D0000088401C10490880601CC4B2152CF1DB5A
:1002E0000EE00C480078AA2804D10A48407CEE2889
:1002F00000D105E000200849088009A001F046F877
:100300004FF4003000F012F84FF4003000F01CF809
:1003100010BD0000B50800207008002074080020FF
:10032000646D61206572726F720D0A0000F0805179
:1003300011B10349086001E00249486070470000BC
:10034000040402400000024000F0805111B1034952
:10035000086001E002494860704700000404024060
:100360000000024021B1026842F00102026004E094
:1003700002684FF6FE731A40026070470146002083
:10038000002201F0805313B1054B1A6801E0054BC0
:100390001A6802EA01030BB1012000E00020704757
:1003A00000040240000002401AB103680B430360DE
:1003B00002E003688B430360704710B500220268B7
:1003C00047F6F0739A430C6A8B6823430C69234306
:1003D0004C6923438C692343CC6923434C6A2343F0
:1003E0008C6A23431A430260CB6843600B688360C6
:1003F0004B68C36010BD000000B589B00121082022
:1004000000F09AFA0121022000F076FA1020ADF8EF
:10041000200003208DF8220010208DF8230008A969
:100420005A4800F0BAF82020ADF8200003208DF8DB
:10043000220010208DF8230008A9544800F0ADF8E0
:100440000121534800F034F90120ADF820000320C9
:100450008DF8220010208DF8230008A94B4800F0E9
:100460009CF80220ADF8200003208DF82200102017
:100470008DF8230008A9454800F08FF83321434840
:1004800000F05EF91020ADF8200003208DF8220066
:1004900018208DF8230008A93C4800F07EF82020A1
:1004A000ADF8200003208DF8220018208DF82300DD
:1004B00008A9364800F071F80120ADF820000320AB
:1004C0008DF8220018208DF8230008A92F4800F08D
:1004D00064F80220ADF8200003208DF822001820D7
:1004E0008DF8230008A9294800F057F80020ADF83E
:1004F0001A004720ADF814000020ADF8160044F6AD
:100500002060ADF8180005A9224800F069FD7020B0
:10051000ADF804000120ADF806000020ADF80A0097
:100520000220ADF80C000020ADF80E00ADF8100070
:10053000ADF8120001A9174800F026FC0120ADF823
:1005400006000020ADF80A0001A9124800F068FC7E
:100550000120ADF806000020ADF80A0001A90D4801
:1005600000F0B0FC0120ADF806000020ADF80A0054
:1005700001A9084800F0F6FC0121064800F0D8FB6C
:100580000121044800F0E3FB09B000BD000C01406C
:1005900000081A000004004070472DE9F0410246AF
:1005A00000250026002000230024002791F803C026
:1005B0000CF00F0591F803C00CF0100CBCF1000F0B
:1005C00003D091F802C04CEA050591F800C0BCF1D7
:1005D000000F31D0146800202BE04FF0010C0CFA12
:1005E00000F3B1F800C00CEA03069E4220D183005C
:1005F0004FF00F0C0CFA03F7BC4305FA03FC4CEA6E
:10060000040491F803C0BCF1280F06D14FF0010C8F
:100610000CFA00FCC2F814C00AE091F803C0BCF167
:10062000480F05D14FF0010C0CFA00FCC2F810C0C5
:10063000401C0828D1D31460B1F800C0BCF1FF0FF2
:1006400034DD546800202EE000F1080C4FF0010862
:1006500008FA0CF3B1F800C00CEA03069E4221D15F
:1006600083004FF00F0C0CFA03F7BC4305FA03FCB0
:100670004CEA040491F803C0BCF1280F05D100F145
:10068000080C08FA0CF8C2F8148091F803C0BCF109
:10069000480F07D100F1080C4FF0010808FA0CF8D8
:1006A000C2F81080401C0828CED35460BDE8F08109
:1006B000F0B50A46002300240021002500F0004682
:1006C000B6F1004F02D11D4EF16901E01B4E716879
:1006D000C0F3034583B200F44016B6F5401F08D1BD
:1006E00021F07061154E766826F07066134F7E60BB
:1006F00012E000F48016B6F5801F06D1032606FA34
:1007000005F4A14341F0706106E0460D360103FA9D
:1007100006F6B14341F0706122B1460D360103FA8D
:1007200006F6314300F00046B6F1004F02D1034E09
:10073000F16101E0014E7160F0BD00000000014078
:10074000416170470161704700BFFEE770B5044624
:1007500025460EE0002008490860642000F060FE95
:1007600001200649C1F8A001642000F059FE681E6E
:10077000C5B2002DEEDC70BDA00121420000214277
:100780000120014908607047A00121420020014971
:1007900008607047A001214208B501212C2000F01B
:1007A000CBF80121084600F0C7F801211F48FFF7E8
:1007B0007FFF4FF40870ADF8000010208DF80300A3
:1007C00003208DF8020069461948FFF7E6FE4FF452
:1007D00008711748FFF7B4FF4FF40140ADF800006F
:1007E00010208DF8030003208DF80200694611489F
:1007F000FFF7D3FE4FF400410E48FFF7A1FF4FF47F
:1008000080710C48FFF79EFF0420ADF80000102017
:100810008DF8030003208DF8020069460648FFF7B3
:10082000BCFE04210448FFF78BFF08BD0002300026
:10083000000C0140000801400014014000BFFEE729
:10084000704710B54FF4A06000F03AF810BD0000FA
:1008500070B5002100230F22C47804B3154C24681E
:1008600004F4E064C4F5E064210AC1F10403CA4061
:10087000447804FA03F184781440214309010E4CB2
:100880000678A155047804F01F050124AC400578D2
:100890006D11AD0005F1E025C5F8004109E00478CF
:1008A00004F01F050124AC40044D0678761145F88C
:1008B000264070BD0CED00E000E400E080E100E0C7
:1008C00002490143024A1160704700000000FA0526
:1008D0000CED00E07047000029B1064A526902435E
:1008E000044B5A6104E0034A52698243014B5A6146
:1008F000704700000010024029B1064AD269024345
:10090000044BDA6104E0034AD2698243014BDA61A5
:10091000704700000010024029B1064A12690243E4
:10092000044B1A6104E0034A12698243014B1A61C5
:10093000704700000010024029B1064A9269024344
:10094000044B9A6104E0034A92698243014B9A6125
:10095000704700000010024029B1064AD2680243E5
:10096000044BDA6004E0034AD2688243014BDA6048
:10097000704700000010024030B500210022002422
:1009800000232D4D6D6805F00C0121B1042905D01F
:10099000082923D105E0294D056022E0274D056097
:1009A0001FE0254D6D6805F47012234D6D6805F448
:1009B0008034022505EB92421CB9214D5543056058
:1009C0000BE01D4D6D6805F400351DB11C4D554300
:1009D000056002E0194D5543056002E0174D0560C2
:1009E00000BF00BF144D6D6805F0F0010909154DF9
:1009F0006B5C0568DD4045600F4D6D6805F4E06196
:100A0000090A104D6B5C4568DD4085600A4D6D68D4
:100A100005F46051C90A0B4D6B5C4568DD40C5604B
:100A2000054D6D6805F44041890B074D6B5CC56849
:100A3000B5FBF3F5056130BD0010024000127A00ED
:100A400000093D005408002064080020704710B5DC
:100A500000F002F810BD00000CB5002001900090DD
:100A60003348006840F480303149086000BF3048A6
:100A7000006800F4003000900198401C019000983C
:100A800018B90198B0F5A06FF1D12948006800F4B9
:100A9000003010B10120009001E00020009000988B
:100AA000012843D12348006840F010002149086024
:100AB0000846006820F0030008600846006840F01F
:100AC000020008601A4840681949486008464068B2
:100AD00048600846406840F48060486008464068C6
:100AE00020F47C1048600846406840F4E8104860F4
:100AF0000846006840F08070086000BF0C4800683D
:100B000000F000700028F9D00948406820F0030088
:100B1000074948600846406840F00200486000BF4E
:100B20000348406800F00C000828F9D10CBD000013
:100B30000010024000200240042808D14FF0E021BC
:100B4000096941F004014FF0E022116107E04FF024
:100B5000E021096921F004014FF0E02211617047A2
:100B60007047000010B51348006840F001001149BB
:100B7000086008464068104908400E494860084629
:100B800000680E4908400B4908600846006820F4D8
:100B9000802008600846406820F4FE0048604FF45A
:100BA0001F008860FFF753FF4FF0006004490860A2
:100BB00010BD0000001002400000FFF8FFFFF6FE2D
:100BC00008ED00E010B500240121214800F0CBF829
:100BD000E8B3204800684FF47A71B0FBF1F201FBF2
:100BE0001204B4F5FA7F13D81B4830F9140000281A
:100BF00003DD194830F9140003E0174830F91400F8
:100C000040421349383108800020091D088015E052
:100C1000B4F5FA7F12D9104830F91400002803DD2A
:100C20000D4830F9140003E00B4830F9140040423D
:100C300007493C3108800020091F088005480068EA
:100C4000401C044908600121014800F07DF810BDF6
:100C5000002C0140500800208000002010B5012128
:100C6000880700F080F830B313480068401C124930
:100C7000086012488088401C1049888008464088D7
:100C8000401C48800C4800681421B0FBF1F201FBC5
:100C9000120060B90948007820F00100401C0749A3
:100CA00008700846007820F00200801C08700121BE
:100CB000880700F049F810BD540000200000002013
:100CC00010B50121044800F04EF818B10121024886
:100CD00000F03AF810BD0000000C004010B50121F2
:100CE000104800F040F8D8B101210E4800F02CF86F
:100CF00000200D4908700FE00C480B49097850F8A6
:100D00002100401E0949084A127841F8220006488D
:100D10000078401C04490870034800780B28EBDB7E
:100D200010BD0000001000405000002024000020F2
:100D300021B1028842F08002028004E002884FF66E
:100D40007F731A4002807047CA430282704721B104
:100D5000028842F00102028004E002884FF6FE732E
:100D60001A400280704730B502460020002300245C
:100D7000158A05EA0103958905EA010413B10CB14E
:100D8000012000E0002030BD70B5002400220023C7
:100D9000058C4FF6FE7635400584028C8388048BE3
:100DA0004FF68F752C40B51E2C400D882C43751EB8
:100DB0002A400D892A434D882A43144DA8420BD05E
:100DC000134DA84208D0134DA84205D0124DA84299
:100DD00002D0124DA84213D14FF6F7752A404D8923
:100DE0002A434FF6FB752A408D882A434FF6FF654C
:100DF0002B404FF6FF552B408D892B43CD892B433C
:100E000083800483CD888586028470BD002C0140D8
:100E100000340140004001400044014000480140CE
:100E200070B5002400220023058C4FF6EF76354084
:100E30000584028C8388048B48F6FF752C404FF69E
:100E4000FF452C400D884FF6FF7606EA05252C431A
:100E50004FF6DF752A400D8906EA05152A434D88AD
:100E600006EA05152A43154DA84202D0144DA842A2
:100E70001DD14FF67F752A404D894FF6FF7606EA61
:100E800005152A434FF6BF752A408D8806EA0515D9
:100E90002A434FF6FF352B404FF2FF752B408D89CB
:100EA00006EA85052B43CD8906EA85052B43838019
:100EB0000483CD880587028470BD0000002C0140AA
:100EC0000034014070B5002400220023058C4FF649
:100ED000FF6635400584028C8388848B4FF68F75BE
:100EE0002C404FF6FC752C400D882C434FF6FF55D7
:100EF0002A400D894FF6FF7606EA05252A434D88DC
:100F000006EA05252A43154DA84202D0144DA842F1
:100F10001DD14FF2FF752A404D894FF6FF7606EA44
:100F200005252A434FF6FF352A408D8806EA052518
:100F30002A434EF6FF752B404DF6FF752B408D89E9
:100F400006EA05152B43CD8906EA05152B43838058
:100F50008483CD888587028470BD0000002C014009
:100F60000034014070B5002200230024058C4EF6A9
:100F7000FF7635400584038C8488828B48F6FF75A4
:100F80002A404FF6FF452A400D884FF6FF7606EAC5
:100F900005252A434DF6FF752B400D8906EA0535D8
:100FA0002B434D8806EA05352B430B4DA84202D052
:100FB0000A4DA84208D14BF6FF752C408D894FF69B
:100FC000FF7606EA85152C4384808283CD88A0F8BD
:100FD0004050038470BD0000002C014000340140EB
:100FE000002202881D4B98420ED01D4B98420BD018
:100FF000B0F1804F08D01B4B984205D01A4B984255
:1010000002D01A4B984204D14FF68F731A404B8886
:101010001A43174B984207D0164B984204D04FF60C
:10102000FF431A40CB881A4302808B8883850B8844
:1010300003850A4B98420BD0094B984208D00E4BBF
:10104000984205D00D4B984202D00D4B984201D1E9
:101050000B7A03860123838270470000002C014035
:10106000003401400004004000080040000C004033
:1010700000100040001400400040014000440140C6
:101080000048014010B5002440F22551384800F0D6
:10109000DFF800286BD0364800F070F9C4B235484C
:1010A0000078401C3349087008460078012804D0B5
:1010B000022812D018284AD137E0412C09D12E48F5
:1010C000008840F400402C49088000202B4908602B
:1010D00002E000202849088048E0422C06D126483A
:1010E000008840F48040244908801DE0432C06D14C
:1010F0002148008840F400501F49088014E0442C27
:1011000006D11D48008840F480501B4908800BE040
:10111000452C06D11848008840F400601649088024
:1011200002E000201449088020E0452C03D0002074
:10113000114908800AE01048008840F480600E4998
:10114000088000200B4908700D4908700EE00D481A
:101150000B49097844540A480078401C0849087033
:1011600005480088401C0449088000BF00BF10BD2E
:10117000003801407208002070080020A0012142C0
:10118000730800207408002021B1828942F40052C3
:10119000828104E082894DF6FF731A408281704794
:1011A0001AB1838A0B43838202E0838A8B43838252
:1011B0007047000010B504462048844209D101213F
:1011C0008803FFF7C9FB00214FF48040FFF7C4FB01
:1011D00032E01B48844209D101214804FFF79CFBFF
:1011E00000214FF40030FFF797FB25E015488442BB
:1011F00009D101218804FFF78FFB00214FF48020E3
:10120000FFF78AFB18E01048844209D10121C80485
:10121000FFF782FB00214FF40020FFF77DFB0BE07E
:101220000A48844208D101210805FFF775FB002117
:101230004FF48010FFF770FB10BD00000038014034
:101240000044004000480040004C00400050004076
:1012500070B50246002400230025002040F66A16DF
:10126000B14200D100BFC1F3421501F01F030126B6
:1012700006FA03F3012D02D19689334006E0022DD0
:1012800002D1168A334001E0968A33400C120126BF
:1012900006FA04F41688344013B10CB1012000E0C2
:1012A000002070BD2DE9F04786B005460E460024AB
:1012B000A24600BFA1460027B08900B100BF2F465B
:1012C0002C8A4CF6FF700440F08804432C82AC89D1
:1012D0004EF6F3100440B088318908437189084301
:1012E0000443AC81AC8A4FF6FF400440B08904430C
:1012F000AC8201A8FFF740FB1F48874202D1DDF80E
:1013000010A001E0DDF80CA0A88900F4004040B175
:101310000AEBCA0000EB0A1031684900B0FBF1F893
:1013200007E00AEBCA0000EB0A1031688900B0FB45
:10133000F1F86420B8FBF0F004012009642101FBFE
:101340001089A88900F4004040B1322000EBC900A8
:10135000B0FBF1F000F00700044308E0322000EB9E
:1013600009106421B0FBF1F000F00F0004432C8160
:1013700006B0BDE8F08700000038014001468888CB
:10138000C0F30800704700BFFEE70000014A0249B1
:1013900000F013B86D1400086C08002002E008C8C3
:1013A000121F08C1002AFAD170477047002001E0DF
:1013B00001C1121F002AFBD170472DE9F0411646EA
:1013C0000F460446002503E03946B047641C6D1CF7
:1013D00020780028F8D12846BDE8F08110B56FF0DC
:1013E0000400FFF7A9FB0A4800680A49B0FBF1F0C6
:1013F000094908700846007800EB4001C1EBC010B5
:101400004FF6FF7101EAC0000449088010BD0000DA
:101410001000002000127A00680800206A080020EE
:101420000146114A12884A434FF0E0235A610022D4
:101430009A611A46126942F001021A6100BF4FF028
:10144000E022106900F001021AB100F48032002A93
:10145000F5D04FF0E022126922F001024FF0E023B4
:101460001A6100229A6170476A08002000BF054A8D
:10147000128802F04002002AF9D0C2B2014B1B1DB3
:101480001A80704700380140FEF7B0FE00BFFEE74B
:1014900010B592B00446012144F20400FFF74CFA63
:1014A00001210846FFF718FA4C48FFF783FE4FF476
:1014B0000070ADF8440003208DF8460018208DF828
:1014C000470011A94648FFF768F84FF48060ADF86F
:1014D000440004208DF8470011A94148FFF75DF84A
:1014E0000D944FF48050ADF838000020ADF83A006C
:1014F0004FF48060ADF83C000020ADF840000C20B7
:10150000ADF83E000DA93548FFF7CCFE0121334868
:10151000FFF73AFE3148001D01903248029000204A
:101520000390182004900020059080200690002051
:1015300007900890202009904FF440500A90002016
:101540000B9001A92848FEF738FF012240212348CB
:10155000FFF726FE012202212348FEF725FF012185
:101560002148FEF7FFFE0F208DF8300001208DF896
:10157000310000208DF8320001208DF833000CA8D6
:10158000FFF766F9012202211748FEF70DFF134805
:10159000001D01901548029010200390292004900E
:1015A0000020059080200690002007900890099068
:1015B0004FF440500A9000200B9001A90A481438BB
:1015C000FEF7FBFE012280210448FFF7E9FD002120
:1015D00005481438FEF7C6FE12B010BD00380140B1
:1015E00000080140B5080020580002408C08002087
:1015F0001016000800000020740800008C0100088C
:10160000441D0008740800205C0A0000AC130008A8
:1016100032000140040101010960060000A24A04F1
:101620000B400F0102030406070809D0070000E879
:1016300003042005DC050000100112040134010040
:10164000FF000800100019002100290031003900B6
:101650004100490052005A0062006A0072007A009C
:1016600082008B0093009B00A300AB00B300BB0083
:10167000C300CB00D300DB00E400EC00F400FC006E
:1016800004010C0114011C0124012C0133013B0154
:1016900043014B0153015B0163016B0173017A014B
:1016A00082018A0192019901A101A901B101B80148
:1016B000C001C801CF01D701DF01E601EE01F5014C
:1016C000FD0104020C0213021B0222022A02310253
:1016D0003802400247024E0255025D0264026B026C
:1016E00072027902810288028F0296029D02A40290
:1016F000AB02B202B902BF02C602CD02D402DB02C3
:10170000E102E802EF02F502FC0203030903100301
:1017100016031D0323032A03300336033D0343034B
:1017200049034F0356035C03620368036E037403AB
:101730007A03800386038C03910397039D03A3031D
:1017400010D4A803AE03B403B903BF03C403CA0390
:10175000CF03D503DA03DF03E403EA03EF03F40363
:10176000F903FE03030408040D04120417041C0407
:10177000210425042A042F04330438043C044104C2
:1017800045044A044E04520457045B045F04630496
:1017900067046B046F04730477047B047F04830481
:1017A00086048A048E049104950498049C049F0482
:1017B000A204A604A904AC04AF04B304B604B9049B
:1017C000BC04BF04C204C404C704CA04CD04CF04CB
:1017D000D204D404D704D904DC04DE04E004E30416
:1017E000E504E704E904EB04ED04EF04F104F30479
:1017F000F504F604F804FA04FB04FD04FE040005F5
:1018000001050305040505050605080509050A0582
:101810000B050C050D0210060E050F051002121126
:1018200002121202321302F2140241182122212A5A
:101830002132120F3C2142120C4C120A5412085C45
:1018400012056412036C10040005FE7812FB80126E
:10185000F88812F59012F19812EDA012E9A812E59D
:10186000B012E0B812DCC012D7C812D2D012CDD854
:1018700012C7E012C2E812BCF012B6F816AF00169A
:10188000A90816A210169C18169520168E281686E2
:1018900030167F38167740166F48166750165F5817
:1018A000165760164E68164570163C78163380162B
:1018B0002A88162190161798160DA014040304FE0A
:1018C000AC16F4B416EABC16DFC416D5CC16CAD4CE
:1018D00016BFDC16B4E416A8EC169DF41691FC1A9B
:1018E00086041A7A0C1A6E141A621C1A56241A49A3
:1018F0002C1A3D341A303C1A23441A164C18060987
:10190000030303FC5C1AEF641AE16C1AD4741AC660
:101910007C1AB9841AAB8C1A9D941A8F9C1A81A4D4
:101920001A72AC1A64B41A55BC1A47C41A38CC1AC5
:101930002AD41A1BDC18060C020402FDEC1AEEF481
:101940001ADFFC1ECF04031EC00C031EB114031EBD
:10195000A11C031E9224031E822C031E7334031E3B
:10196000633C031E5344031E434C031E3354031EA7
:10197000245C031E1464031C040401FC70031EECAD
:1019800078031EDB80031ECB88031EBB90031EABB7
:1019900098031E9BA0031E8BA8031E7AB0031E6A29
:1019A000B8031E5AC0031E49C8031E39D0031E299E
:1019B000D8031E19E0031E08590400FF00F8FFF0C9
:1019C000FFE7FFDFFFD7FFCFFFC7FFBFFFB7FFAEC8
:1019D000FFA6FF9EFF96FF8EFF86FF7EFF75FF6DC1
:1019E000FF65FF5DFF55FF4DFF45FF3DFF35FF2DB7
:1019F000FF25FF1CFF14FF0CFF04FFFCFEF4FEECB0
:101A0000FEE4FEDCFED4FECDFEC5FEBDFEB5FEADA1
:101A1000FEA5FE9DFE95FE8DFE86FE7EFE76FE6E8A
:101A2000FE67FE5FFE57FE4FFE48FE40FE38FE3169
:101A3000FE29FE21FE1AFE12FE0BFE03FEFCFDF443
:101A4000FDEDFDE5FDDEFDD6FDCFFDC8FDC0FDB918
:101A5000FDB2FDABFDA3FD9CFD95FD8EFD87FD7FD9
:101A6000FD78FD71FD6AFD63FD5CFD55FD4EFD4792
:101A7000FD41FD3AFD33FD2CFD25FD1FFD18FD1137
:101A8000FD0BFD04FDFDFCF7FCF0FCEAFCE3FCDDD6
:101A9000FCD6FCD0FCCAFCC3FCBDFCB7FCB1FCAA64
:101AA000FCA4FC9EFC98FC92FC8CFC86FC80FC7ADE
:101AB000FC74FC6FFC69FC63FC5DFC10D458FC52A8
:101AC000FC4CFC47FC41FC3CFC36FC31FC2BFC266E
:101AD000FC21FC1CFC16FC11FC0CFC07FC02FCFDB0
:101AE000FBF8FBF3FBEEFBE9FBE4FBDFFBDBFBD6E8
:101AF000FBD1FBCDFBC8FBC4FBBFFBBBFBB6FBB202
:101B0000FBAEFBA9FBA5FBA1FB9DFB99FB95FB9104
:101B1000FB8DFB89FB85FB81FB7DFB7AFB76FB72F2
:101B2000FB6FFB6BFB68FB64FB61FB5EFB5AFB57C7
:101B3000FB54FB51FB4DFB4AFB47FB44FB41FB3E87
:101B4000FB3CFB39FB36FB33FB31FB2EFB2CFB292B
:101B5000FB27FB24FB22FB20FB1DFB1BFB19FB17B8
:101B6000FB15FB13FB11FB0FFB0DFB0BFB0AFB082B
:101B7000FB06FB05FB03FB02FB00FBFFFAFDFAFC87
:101B8000FAFBFAFAFAF8FAF7FAF6FAF5FAF4FAF3CF
:101B9000021006F2FAF1FAF00212EF0212EE02322D
:101BA000ED02F2EC0241182122212A213212F13CED
:101BB000214212F44C12F65412F85C12FB64100627
:101BC000FDFAFFFA007412037C120684120A8C12CA
:101BD0000D9412119C1215A41219AC121DB41222EC
:101BE000BC1227C4122CCC1231D41236DC123CE4C5
:101BF0001241EC1247F4124DFC165404165A0C16FE
:101C0000611416681C166F2416762C167D34168502
:101C10003C168D4416954C169D5416A55C16AE6464
:101C200016B66C16BF7416C87C16D18416DB8C16DB
:101C3000E49416EE9C1406F8FBFDFB02AC160CB403
:101C40001616BC1621C4162BCC1636D41641DC163B
:101C50004CE41658EC1663F4166FFC1A7A041A86D4
:101C60000C1A92141A9E1C1AAA241AB72C1AC334DE
:101C70001AD03C1ADD441AEA4C1806F7FCFDFC04A5
:101C80005C1A11641A1F6C1A2C741A3A7C1A478455
:101C90001A558C1A63941A719C1A7FA41A8EAC1A66
:101CA0009CB41AABBC1AB9C41AC8CC1AD6D41AE55B
:101CB000DC1806F4FDFCFD03EC1A12F41A21FC1EDC
:101CC0003104031E400C031E4F14031E5F1C031E31
:101CD0006E24031E7E2C031E8D34031E9D3C031EAA
:101CE000AD44031EBD4C031ECD54031EDC5C031E1D
:101CF000EC64031C04FCFE0470031E1478031E2510
:101D000080031E3588031E4590031E5598031E65EB
:101D1000A0031E75A8031E86B0031E96B8031EA658
:101D2000C0031EB7C8031EC7D0031ED7D8031EE7C3
:101D3000E003AFF8FF3C086D4008AC05020406085C
:041D40001E08000079
:0400000508000131BD
:00000001FF
